:100000000C943A000C94EA000C9435010C943501E0
:100010000C9435010C9435010C9435010C94350188
:100020000C9435010C9435010C9435010C94350178
:100030000C9435010C9435010C9464000C9435013A
:100040000C9435010C9435010C9435010C94350158
:100050000C9435010C9435010C9435010C94350148
:100060000C9435010C943501010001168001160134
:100070001700026E11241FBECFEFD8E0DEBFCDBF48
:10008000E8E6F0E040E017C0B591A59135912591E3
:10009000059107FD0CC095918591EF01F92FE82F8F
:1000A00005900D92A217B307D9F7FE0104C01D9267
:1000B000A217B307E1F7E437F40731F70E942F01E5
:0800C0000C946200F894FFCFDC
:1000C8001F920F920FB60F9211242F938F939F9325
:1000D800809107018823B9F020910A012F5F2093AE
:1000E8000A0189B18695869591E0892781702B3020
:1000F80008F490E0892339F081E080930D01109293
:100108000A01109207018091030190910401019660
:100118009093040180930301809108019091090153
:100128000196909309018093080180910F019091A5
:10013800100101969093100180930F018091110195
:100148009091120101969093120180931101883EBB
:100158009340F9F410921201109211018091150147
:100168008F5F809315018C33A1F410921501809153
:1001780014018F5F809314018C3359F41092140189
:10018800809113018F5F80931301893111F41092CC
:1001980013019F918F912F910F900FBE0F901F9079
:0201A8001895A8
:1001AA0081EA809380008DE08093810082E086BBA3
:1001BA0080936F008FE790E0909389008093880086
:0A01CA0090938B0080938A00089543
:1001D4001F920F920FB60F9211248F9381E0809398
:1001E400070110920A018F910F900FBE0F901F907C
:0201F40018955C
:1001F60083E28093B00087E08093B1001092B40050
:080206008AB188608AB90895ED
:10020E000E9412010E94D5000E94FB000E941C0158
:06021E000E942601089574
:1002240082E084BD93E095BD9AEF97BD80936E0004
:04023400789408951D
:1002380087B18F6187B98AB18F7E8AB984B18360AB
:0402480084B90895D8
:10024C0082E08093690081E08DBB83E08CBB789465
:02025C00089503
:0C025E000E94070182E080931601FFCF90
:04026A000C940000F0
:01026E00018E
:00000001FF
