:100000000C943A000C9420010C947A010C947A011F
:100010000C947A010C947A010C947A010C947A0174
:100020000C947A010C947A010C947A010C947A0164
:100030000C947A010C947A010C9464000C947A016B
:100040000C947A010C947A010C947A010C947A0144
:100050000C947A010C947A010C947A010C947A0134
:100060000C947A010C947A010100011580011501AC
:10007000160002F811241FBECFEFD8E0DEBFCDBFBF
:10008000E8E6F0E040E017C0B591A59135912591E3
:10009000059107FD0CC095918591EF01F92FE82F8F
:1000A00005900D92A217B307D9F7FE0104C01D9267
:1000B000A217B307E1F7E437F40731F70E94D50040
:0800C0000C946200F894FFCFDC
:1000C8001F920F920FB60F9211242F938F939F9325
:1000D800809105018823B9F020910B012F5F2093AF
:1000E8000B0189B18695869591E0892781702B301F
:1000F80008F490E0892339F081E080930C01109294
:100108000B01109205018091020190910301019663
:100118009093030180930201809106019091070159
:100128000196909307018093060180910E019091AA
:100138000F01019690930F0180930E018091100199
:100148009091110101969093110180931001883EBE
:100158009340F9F41092110110921001809114014A
:100168008F5F809314018C33A1F410921401809155
:1001780013018F5F809313018C3359F4109213018C
:10018800809112018F5F80931201893111F41092CE
:1001980012019F918F912F910F900FBE0F901F907A
:0201A8001895A8
:1001AA0010920C011092030110920201109209019F
:1001BA0082E0809315010E944C0180E00E94310187
:1001CA0080911501823051F0833071F0813089F4C9
:1001DA0080910B018F5F80930B010BC080910B0103
:1001EA008F5F80930B0105C080910B018F5F809315
:1001FA000B018091020190910301069708F30E9476
:0C020A0075011092030110920201DACF7E
:1002160081EA809380008DE08093810082E086BB36
:1002260080936F008FE790E0909389008093880019
:0A02360090938B0080938A000895D6
:100240001F920F920FB60F9211248F9381E080932B
:10025000050110920B018F910F900FBE0F901F9010
:020260001895EF
:10026200813039F485B1826085B981E080930401DF
:0E027200089585B18D7F85B91092040108951D
:1002800083E28093B00087E08093B1001092B400C5
:080290008AB188608AB9089563
:100298000E9458010E940B010E9440010E946201C5
:0802A8000E946C017894089596
:1002B00082E084BD93E095BD9AEF97BD80936E0078
:0402C0007894089591
:1002C40087B18F6187B98AB18F7E8AB984B183601F
:0402D40084B908954C
:1002D80082E08093690081E08DBB83E08CBB7894D9
:0202E800089577
:0A02EA0095B182E0892785B90895D7
:0402F4000C94000066
:0102F8000104
:00000001FF
