:100000000C943A000C94C2010C9405020C94050265
:100010000C9405020C9405020C9405020C94050244
:100020000C9405020C9405020C9405020C94050234
:100030000C9405020C9405020C9464000C940502C7
:100040000C9405020C9405020C9405020C94050214
:100050000C9405020C9405020C9405020C94050204
:100060000C9405020C940502010001168001160192
:100070001700040E11241FBECFEFD8E0DEBFCDBFA6
:10008000E8E6F0E040E017C0B591A59135912591E3
:10009000059107FD0CC095918591EF01F92FE82F8F
:1000A00005900D92A217B307D9F7FE0104C01D9267
:1000B000A217B307E1F7E437F40731F70E94F30022
:0800C0000C946200F894FFCFDC
:1000C8001F920F9200905F000F9211242F933F937D
:1000D8008F939F93EF93FF93CF93DF93CDB7DEB7C3
:1000E80080910501882331F180910B0190910C01D9
:1000F800019690930C0180930B0131E00B9708F463
:1001080030E089E290E0FC018081882F90E08470E3
:10011800992721E0892B09F020E0832F8223882367
:1001280049F081E080930D0110920C0110920B01AF
:10013800109205018091020190910301019690931C
:1001480003018093020180910601909107010196B5
:1001580090930701809306018091110190911201FB
:100168000196909312018093110180910F01909153
:10017800100101969093100180930F01883E9340DF
:10018800F9F41092100110920F01809113018F5F02
:10019800809313018C33A1F4109213018091140100
:1001A8008F5F809314018C3359F41092140180915D
:1001B80015018F5F80931501893111F41092150193
:1001C8000000DF91CF91FF91EF919F918F913F9127
:0E01D8002F910F9000925F000F901F901895CE
:1001E600CF93DF93CDB7DEB710920D0110920301C6
:1001F600109202011092090182E0809316010E947A
:10020600F60180911601882F90E08330910559F10F
:100216008430910534F48130910549F0029789F0D4
:100226002FC08430910549F1059749F129C0809185
:100236000B0190910C01019690930C0180930B0198
:100246001FC080E00E945B0180910B0190910C0120
:10025600019690930C0180930B01809116018F5F9C
:10026600809316010DC080910B0190910C010196AF
:1002760090930C0180930B0103C0000001C00000A5
:100286008091020190910301059719F481E00E9483
:100296005B0180910201909103010B9708F4B1CFA5
:1002A60080E00E945B011092030110920201A9CF27
:1002B600CF93DF931F92CDB7DEB7898389818130D3
:1002C60069F485E290E025E230E0F90120812260C0
:1002D600FC01208381E0809304010BC085E290E05D
:1002E60025E230E0F90120812D7FFC012083109268
:0C02F600040100000F90DF91CF910895EB
:10030200CF93DF93CDB7DEB787E290E027E230E00C
:10031200F90120812F61FC0120838AE290E02AE228
:1003220030E0F90120812F7EFC01208384E290E0FD
:1003320024E230E0F90120812360FC0120830000E7
:06034200DF91CF91089548
:10034800CF93DF93CDB7DEB784E490E022E0FC01E1
:10035800208385E490E023E0FC01208387E490E09B
:100368002DE7FC0120838EE690E022E0FC0120834B
:0C037800789400000000DF91CF91089500
:100384001F920F9200905F000F9211248F93CF93CE
:10039400DF93CDB7DEB781E08093050110920C01A5
:1003A40010920B010000DF91CF918F910F9000927A
:0803B4005F000F901F901895E7
:1003BC00CF93DF93CDB7DEB789E690E022E0FC0166
:1003CC0020838DE390E021E0FC0120838CE390E01E
:1003DC0023E0FC01208378940000DF91CF910895F5
:1003EC00CF93DF93CDB7DEB70E94A4010E948101A9
:0E03FC000E94DE0178940000DF91CF910895F9
:04040A000C9400004E
:01040E0001EC
:00000001FF
