:100000000C943A000C94EB020C942F030C942F03E5
:100010000C942F030C942F030C942F030C949A012F
:100020000C942F030C942F030C942F030C942F0388
:100030000C942F030C942F030C9464000C942F0346
:100040000C942F030C942F030C942F030C942F0368
:100050000C942F030C942F030C942F030C942F0358
:100060000C942F030C942F030100011E80011E012C
:100070001F00066211241FBECFEFD8E0DEBFCDBF48
:10008000E8E6F0E040E017C0B591A59135912591E3
:10009000059107FD0CC095918591EF01F92FE82F8F
:1000A00005900D92A217B307D9F7FE0104C01D9267
:1000B000A217B307E1F7E437F40731F70E9405010F
:0800C0000C946200F894FFCFDC
:1000C8001F920F9200905F000F9211242F933F937D
:1000D8008F939F93EF93FF93CF93DF93CDB7DEB7C3
:1000E80080910B01882331F18091140190911501C1
:1000F8000196909315018093140131E00B9708F451
:1001080030E089E290E0FC018081882F90E08470E3
:10011800992721E0892B09F020E0832F8223882367
:1001280049F081E080931601109215011092140194
:1001380010920B0180910201909103010196909316
:100148000301809302018091090190910A010196AF
:1001580090930A018093090180910401909105010F
:100168000196909305018093040180910E0190916E
:100178000F01019690930F0180930E018091190150
:1001880090911A01019690931A0180931901809118
:100198001701909118010196909318018093170107
:1001A800883E9340F9F4109218011092170180913B
:1001B8001B018F5F80931B018C33A1F410921B01EC
:1001C80080911C018F5F80931C018C3359F410922D
:1001D8001C0180911D018F5F80931D01893111F4ED
:1001E80010921D010000DF91CF91FF91EF919F9137
:1001F8008F913F912F910F9000925F000F901F9069
:02020800189547
:10020A00CF93DF93CDB7DEB7109216011092030198
:10021A00109202011092120182E080931E010E9444
:10022A00110280911E01882F90E083309105E9F137
:10023A008430910534F48130910559F00297C1F068
:10024A0073C08430910509F46AC0059709F469C03E
:10025A006BC080E00E943C0280E00E94880280E03D
:10026A000E94620280911E018F5F80931E015CC012
:10027A0080911601882309F456C01092160181E074
:10028A000E943C0281E00E948802109207011092AB
:10029A00060188EE93E090930D0180930C01809102
:1002AA001E018F5F80931E013EC086E290E028E027
:1002BA00FC012083209106013091070180910C01F5
:1002CA0090910D0128173907A9F40E941E03809105
:1002DA000C0190910D0199233CF488EE93E09093E0
:1002EA000D0180930C0106C088E19CEF90930D01EB
:1002FA0080930C0180911601882359F010921601FF
:10030A0080E00E943C0280E00E94880282E08093A2
:10031A001E0186E290E028E0FC01208305C000006F
:0A032A0080CF00007ECF00007CCFE2
:100334001F920F9200905F000F9211242F938F93BE
:100344009F93EF93FF93CF93DF93CDB7DEB783EB08
:1003540090E0FC0180818D3731F483EB90E02DE750
:10036400FC01208305C083EB90E02DE7FC01208392
:1003740080911101813051F480910601909107011F
:100384000196909307018093060109C080910601AC
:100394009091070101979093070180930601000053
:1003A400DF91CF91FF91EF919F918F912F910F90BA
:0A03B40000925F000F901F90189553
:1003BE00CF93DF93CDB7DEB780EB90E022E4FC0164
:1003CE00208381EB90E021E0FC01208383EB90E021
:1003DE002DE7FC01208384EB90E0FC01108282EB80
:1003EE0090E0FC01108284E290E024E230E0F9011A
:1003FE0020812860FC01208387E390E022E0FC014D
:10040E00208380E790E022E0FC0120830000DF9152
:04041E00CF910895DD
:10042200CF93DF93CDB7DEB70E94CE020E94DF01E9
:100432000E94AB020E94070388E290E028E230E0CB
:10044200F9012081FC01208388E290E028E230E07B
:10045200F90120812062FC01208388E290E028E2F9
:1004620030E0F90120812862FC01208378940000A9
:06047200DF91CF91089517
:10047800CF93DF931F92CDB7DEB78983898181300F
:1004880069F485E290E025E230E0F90120812260FC
:10049800FC01208381E0809308010BC085E290E095
:1004A80025E230E0F90120812D7FFC0120831092A4
:0C04B800080100000F90DF91CF91089523
:1004C400CF93DF931F92CDB7DEB7898389818130C3
:1004D40069F485E290E025E230E0F90120812160B1
:1004E400FC01208381E0809310010BC085E290E041
:1004F40025E230E0F90120812E7FFC012083109257
:0C050400100100000F90DF91CF910895CE
:10051000CF93DF931F92CDB7DEB789838981813076
:1005200049F488E290E028E230E0F901208121607E
:10053000FC0120838981882349F488E290E028E245
:1005400030E0F90120812E7FFC01208300000F9014
:06055000DF91CF91089538
:10055600CF93DF93CDB7DEB787E290E027E230E0B6
:10056600F90120812B63FC0120838AE290E02AE2D4
:1005760030E0F90120812F7EFC01208384E290E0A7
:1005860024E230E0F90120812360FC012083000091
:06059600DF91CF910895F2
:10059C00CF93DF93CDB7DEB784E490E022E0FC018B
:1005AC00208385E490E023E0FC01208387E490E045
:1005BC002DE7FC0120838EE690E022E0FC012083F5
:0A05CC0000000000DF91CF910895B8
:1005D6001F920F9200905F000F9211248F93CF937A
:1005E600DF93CDB7DEB781E080930B011092150142
:1005F600109214010000DF91CF918F910F9000921D
:080606005F000F901F90189592
:10060E00CF93DF93CDB7DEB789E690E022E0FC0111
:10061E0020838DE390E021E0FC0120838CE390E0C9
:0E062E0023E0FC0120830000DF91CF910895AE
:10063C00CF93DF93CDB7DEB786E290E026E230E0D1
:10064C00F90120812260FC0120830000DF91CF9111
:02065C000895FF
:04065E000C940000F8
:010662000196
:00000001FF
