:100000000C943A000C94FB020C943F030C943F03B5
:100010000C943F030C943F030C943F030C94BE02DA
:100020000C943F030C943F030C943F030C943F0348
:100030000C943F030C943F030C942E010C943F034B
:100040000C943F030C943F030C943F030C943F0328
:100050000C943F030C943F030C943F030C943F0318
:100060000C943F030C943F030100011E80011E010C
:100070001F00068211241FBECFEFD8E0DEBFCDBF28
:10008000E8E6F0E040E017C0B591A59135912591E3
:10009000059107FD0CC095918591EF01F92FE82F8F
:1000A00005900D92A217B307D9F7FE0104C01D9267
:1000B000A217B307E1F7E437F40731F70E946400B1
:0800C0000C946200F894FFCFDC
:1000C800CF93DF93CDB7DEB71092150110920501DB
:1000D800109204011092110182E080931E010E9487
:1000E800010280911E01882F90E083309105E9F18B
:1000F8008430910534F48130910559F00297C1F0AC
:10010800A8C08430910509F49FC0059709F49EC0E2
:10011800A0C080E00E942C0280E00E94780280E06B
:100128000E94520280911E018F5F80931E0191C030
:1001380080911501882309F48BC01092150181E084
:100148000E942C0281E00E94780210920101109214
:10015800000188EE93E090930D0180930C0180914B
:100168001E018F5F80931E0173C086E290E028E035
:10017800FC012083209100013091010180910C0144
:1001880090910D0128173907A9F40E942E03809138
:100198000C0190910D0199233CF488EE93E0909323
:1001A8000D0180930C0106C088E19CEF90930D012E
:1001B80080930C01209100013091010180910C0184
:1001C80090910D018217930754F48091000190914A
:1001D80001010197909301018093000109C080916A
:1001E8000001909101010196909301018093000113
:1001F8008091090190910A01019690930A018093D8
:100208000901809106019091070180910601909162
:100218000701059720F010920701109206018091BE
:100228001501882359F01092150180E00E942C02D4
:1002380080E00E94780282E080931E0186E290E0CE
:1002480028E0FC01208305C000004BCF000049CF07
:04025800000047CF8C
:10025C001F920F9200905F000F9211242F933F93E7
:10026C008F939F93EF93FF93CF93DF93CDB7DEB72D
:10027C0080910B01882331F180911301909114012D
:10028C000196909314018093130131E00B9708F4BD
:10029C0030E089E290E0FC018081882F90E084704E
:1002AC00992721E0892B09F020E0832F82238823D2
:1002BC0049F081E080931501109214011092130102
:1002CC0010920B018091040190910501019690937D
:1002DC000501809304018091090190910A01019616
:1002EC0090930A0180930901809106019091070176
:1002FC000196909307018093060180910E019091D5
:10030C000F01019690930F0180930E0180911901BA
:10031C0090911A01019690931A0180931901809182
:10032C001701909118010196909318018093170171
:10033C00883E9340F9F410921801109217018091A5
:10034C001B018F5F80931B018C33A1F410921B0156
:10035C0080911C018F5F80931C018C3359F4109297
:10036C001C0180911D018F5F80931D01893111F457
:10037C0010921D010000DF91CF91FF91EF919F91A1
:10038C008F913F912F910F9000925F000F901F90D3
:02039C001895B2
:10039E00CF93DF93CDB7DEB780EB90E022E4FC0184
:1003AE00208381EB90E021E0FC01208383EB90E041
:1003BE002DE7FC01208384EB90E0FC01108282EBA0
:1003CE0090E0FC01108284E290E024E230E0F9013A
:1003DE0020812860FC01208387E390E022E0FC016D
:1003EE00208380E790E022E0FC0120830000DF9173
:0403FE00CF910895FE
:10040200CF93DF93CDB7DEB70E94DE020E94CF0109
:100412000E949B020E94170388E290E028E230E0EB
:10042200F9012081FC01208388E290E028E230E09B
:10043200F90120812062FC01208388E290E028E219
:1004420030E0F90120812862FC01208378940000C9
:06045200DF91CF91089537
:10045800CF93DF931F92CDB7DEB78983898181302F
:1004680069F485E290E025E230E0F901208122601C
:10047800FC01208381E0809308010BC085E290E0B5
:1004880025E230E0F90120812D7FFC0120831092C4
:0C049800080100000F90DF91CF91089543
:1004A400CF93DF931F92CDB7DEB7898389818130E3
:1004B40069F485E290E025E230E0F90120812160D1
:1004C400FC01208381E0809310010BC085E290E061
:1004D40025E230E0F90120812E7FFC012083109277
:0C04E400100100000F90DF91CF910895EF
:1004F000CF93DF931F92CDB7DEB789838981813097
:1005000049F488E290E028E230E0F901208121609E
:10051000FC0120838981882349F488E290E028E265
:1005200030E0F90120812E7FFC01208300000F9034
:06053000DF91CF91089558
:10053600CF93DF93CDB7DEB787E290E027E230E0D6
:10054600F90120812B63FC0120838AE290E02AE2F4
:1005560030E0F90120812F7EFC01208384E290E0C7
:1005660024E230E0F90120812360FC0120830000B1
:06057600DF91CF91089512
:10057C001F920F9200905F000F9211248F939F9304
:10058C00CF93DF93CDB7DEB7809106019091070131
:10059C00019690930701809306010000DF91CF91A3
:1005AC009F918F910F9000925F000F901F90189564
:1005BC00CF93DF93CDB7DEB784E490E022E0FC016B
:1005CC00208385E490E023E0FC01208387E490E025
:1005DC002DE7FC0120838EE690E022E0FC012083D5
:0A05EC0000000000DF91CF91089598
:1005F6001F920F9200905F000F9211248F93CF935A
:10060600DF93CDB7DEB781E080930B011092140122
:10061600109213010000DF91CF918F910F900092FD
:080626005F000F901F90189572
:10062E00CF93DF93CDB7DEB789E690E022E0FC01F1
:10063E0020838DE390E021E0FC0120838CE390E0A9
:0E064E0023E0FC0120830000DF91CF9108958E
:10065C00CF93DF93CDB7DEB786E290E026E230E0B1
:10066C00F90120812260FC0120830000DF91CF91F1
:02067C000895DF
:04067E000C940000D8
:010682000176
:00000001FF
