:100000000C943A000C9445020C9489020C948902D9
:100010000C9489020C9489020C9489020C94890234
:100020000C9489020C9489020C9489020C94890224
:100030000C9489020C9489020C9464000C9489023B
:100040000C9489020C9489020C9489020C94890204
:100050000C9489020C9489020C9489020C948902F4
:100060000C9489020C9489020100011A80011A0182
:100070001B00051611241FBECFEFD8E0DEBFCDBF99
:10008000E8E6F0E040E017C0B591A59135912591E3
:10009000059107FD0CC095918591EF01F92FE82F8F
:1000A00005900D92A217B307D9F7FE0104C01D9267
:1000B000A217B307E1F7E437F40731F70E9405010F
:0800C0000C946200F894FFCFDC
:1000C8001F920F9200905F000F9211242F933F937D
:1000D8008F939F93EF93FF93CF93DF93CDB7DEB7C3
:1000E80080910901882331F180910F0190911001CD
:1000F80001969093100180930F0131E00B9708F45B
:1001080030E089E290E0FC018081882F90E08470E3
:10011800992721E0892B09F020E0832F8223882367
:1001280049F081E0809311011092100110920F01A3
:100138001092090180910201909103010196909318
:1001480003018093020180910701909108010196B3
:100158009093080180930701809104019091050113
:100168000196909305018093040180910A01909172
:100178000B01019690930B0180930A018091150160
:100188009091160101969093160180931501809124
:100198001301909114010196909314018093130117
:1001A800883E9340F9F41092140110921301809143
:1001B80017018F5F809317018C33A1F410921701F8
:1001C800809118018F5F809318018C3359F4109235
:1001D8001801809119018F5F80931901893111F4F9
:1001E800109219010000DF91CF91FF91EF919F913B
:1001F8008F913F912F910F9000925F000F901F9069
:02020800189547
:10020A00CF93DF93CDB7DEB710921101109203019D
:10021A001092020110920D0182E080931A010E944D
:10022A00930180911A01882F90E08330910581F122
:10023A008430910534F48130910559F0029799F090
:10024A0050C08430910509F447C0059709F446C0A7
:10025A0048C080910F01909110010196909310016E
:10026A0080930F013EC080E00E94BC0181E00E94A1
:10027A00E20180910F019091100101969093100173
:10028A0080930F0180911A018F5F80931A0129C010
:10029A0080910F0190911001019690931001809323
:1002AA000F018091040190910501029729F486E2D9
:1002BA0090E024E0FC0120838091040190910501E3
:1002CA00039770F086E290E024E0FC01208310920C
:1002DA0005011092040104C0000003C0000001C01F
:1002EA00000080910201909103018436910531F456
:1002FA000E94780210920301109202018091020179
:10030A0090910301893C910508F48BCF80E00E940B
:0C031A00BC01109203011092020183CF7D
:10032600CF93DF93CDB7DEB70E9428020E94050265
:100336000E94610288E290E028E230E0F901208123
:10034600FC01208388E290E028E230E0F901208178
:100356002062FC01208388E290E028E230E0F90187
:1003660020812862FC01208378940000DF91CF91E0
:020376000895E8
:10037800CF93DF931F92CDB7DEB789838981813010
:1003880069F485E290E025E230E0F90120812260FD
:10039800FC01208381E0809306010BC085E290E098
:1003A80025E230E0F90120812D7FFC0120831092A5
:0C03B800060100000F90DF91CF91089526
:1003C400CF93DF931F92CDB7DEB7898389818130C4
:1003D40049F488E290E028E230E0F90120812160CC
:1003E400FC0120838981882349F488E290E028E293
:1003F40030E0F90120812E7FFC01208300000F9062
:06040400DF91CF91089585
:10040A00CF93DF93CDB7DEB787E290E027E230E003
:10041A00F90120812763FC0120838AE290E02AE225
:10042A0030E0F90120812F7EFC01208384E290E0F4
:10043A0024E230E0F90120812360FC0120830000DE
:06044A00DF91CF9108953F
:10045000CF93DF93CDB7DEB784E490E022E0FC01D8
:10046000208385E490E023E0FC01208387E490E092
:100470002DE7FC0120838EE690E022E0FC01208342
:0A04800000000000DF91CF91089505
:10048A001F920F9200905F000F9211248F93CF93C7
:10049A00DF93CDB7DEB781E0809309011092100196
:1004AA0010920F010000DF91CF918F910F9000926F
:0804BA005F000F901F901895E0
:1004C200CF93DF93CDB7DEB789E690E022E0FC015F
:1004D20020838DE390E021E0FC0120838CE390E017
:0E04E20023E0FC0120830000DF91CF910895FC
:1004F000CF93DF93CDB7DEB783E290E023E230E025
:10050000F90120812260FC0120830000DF91CF915E
:0205100008954C
:040512000C94000045
:0105160001E3
:00000001FF
